{
  "_format": "hh-sol-artifact-1",
  "contractName": "Groups",
  "sourceName": "contracts/Groups.sol",
  "abi": [
    {
      "anonymous": false,
      "inputs": [
        {
          "indexed": true,
          "internalType": "bytes32",
          "name": "provider",
          "type": "bytes32"
        },
        {
          "indexed": false,
          "internalType": "bytes32",
          "name": "name",
          "type": "bytes32"
        },
        {
          "indexed": false,
          "internalType": "uint8",
          "name": "depth",
          "type": "uint8"
        }
      ],
      "name": "GroupAdded",
      "type": "event"
    },
    {
      "anonymous": false,
      "inputs": [
        {
          "indexed": true,
          "internalType": "bytes32",
          "name": "provider",
          "type": "bytes32"
        },
        {
          "indexed": true,
          "internalType": "bytes32",
          "name": "name",
          "type": "bytes32"
        },
        {
          "indexed": false,
          "internalType": "uint256",
          "name": "identityCommitment",
          "type": "uint256"
        },
        {
          "indexed": false,
          "internalType": "uint256",
          "name": "root",
          "type": "uint256"
        }
      ],
      "name": "IdentityCommitmentAdded",
      "type": "event"
    },
    {
      "anonymous": false,
      "inputs": [
        {
          "indexed": true,
          "internalType": "bytes32",
          "name": "provider",
          "type": "bytes32"
        },
        {
          "indexed": true,
          "internalType": "bytes32",
          "name": "name",
          "type": "bytes32"
        },
        {
          "indexed": false,
          "internalType": "uint256",
          "name": "identityCommitment",
          "type": "uint256"
        },
        {
          "indexed": false,
          "internalType": "uint256",
          "name": "root",
          "type": "uint256"
        }
      ],
      "name": "IdentityCommitmentDeleted",
      "type": "event"
    },
    {
      "anonymous": false,
      "inputs": [
        {
          "indexed": true,
          "internalType": "address",
          "name": "previousOwner",
          "type": "address"
        },
        {
          "indexed": true,
          "internalType": "address",
          "name": "newOwner",
          "type": "address"
        }
      ],
      "name": "OwnershipTransferred",
      "type": "event"
    },
    {
      "inputs": [
        {
          "internalType": "bytes32",
          "name": "provider",
          "type": "bytes32"
        },
        {
          "internalType": "bytes32",
          "name": "name",
          "type": "bytes32"
        },
        {
          "internalType": "uint256",
          "name": "identityCommitment",
          "type": "uint256"
        }
      ],
      "name": "addIdentityCommitment",
      "outputs": [],
      "stateMutability": "nonpayable",
      "type": "function"
    },
    {
      "inputs": [
        {
          "internalType": "bytes32",
          "name": "provider",
          "type": "bytes32"
        },
        {
          "internalType": "bytes32[]",
          "name": "names",
          "type": "bytes32[]"
        },
        {
          "internalType": "uint256[]",
          "name": "identityCommitments",
          "type": "uint256[]"
        }
      ],
      "name": "batchAddIdentityCommitment",
      "outputs": [],
      "stateMutability": "nonpayable",
      "type": "function"
    },
    {
      "inputs": [
        {
          "internalType": "bytes32",
          "name": "provider",
          "type": "bytes32"
        },
        {
          "internalType": "bytes32[]",
          "name": "names",
          "type": "bytes32[]"
        },
        {
          "internalType": "uint8[]",
          "name": "depths",
          "type": "uint8[]"
        },
        {
          "internalType": "address[]",
          "name": "admins",
          "type": "address[]"
        }
      ],
      "name": "batchCreateGroup",
      "outputs": [],
      "stateMutability": "nonpayable",
      "type": "function"
    },
    {
      "inputs": [
        {
          "internalType": "bytes32",
          "name": "provider",
          "type": "bytes32"
        },
        {
          "internalType": "bytes32",
          "name": "name",
          "type": "bytes32"
        },
        {
          "internalType": "uint8",
          "name": "depth",
          "type": "uint8"
        },
        {
          "internalType": "address",
          "name": "admin",
          "type": "address"
        }
      ],
      "name": "createGroup",
      "outputs": [],
      "stateMutability": "nonpayable",
      "type": "function"
    },
    {
      "inputs": [
        {
          "internalType": "bytes32",
          "name": "provider",
          "type": "bytes32"
        },
        {
          "internalType": "bytes32",
          "name": "name",
          "type": "bytes32"
        },
        {
          "internalType": "uint256",
          "name": "identityCommitment",
          "type": "uint256"
        },
        {
          "internalType": "uint256[]",
          "name": "pathSiblingNodes",
          "type": "uint256[]"
        },
        {
          "internalType": "uint8[]",
          "name": "pathPositions",
          "type": "uint8[]"
        }
      ],
      "name": "deleteIdentityCommitment",
      "outputs": [],
      "stateMutability": "nonpayable",
      "type": "function"
    },
    {
      "inputs": [
        {
          "internalType": "bytes32",
          "name": "provider",
          "type": "bytes32"
        },
        {
          "internalType": "bytes32",
          "name": "name",
          "type": "bytes32"
        }
      ],
      "name": "getRoot",
      "outputs": [
        {
          "internalType": "uint256",
          "name": "",
          "type": "uint256"
        }
      ],
      "stateMutability": "view",
      "type": "function"
    },
    {
      "inputs": [
        {
          "internalType": "bytes32",
          "name": "provider",
          "type": "bytes32"
        },
        {
          "internalType": "bytes32",
          "name": "name",
          "type": "bytes32"
        }
      ],
      "name": "getSize",
      "outputs": [
        {
          "internalType": "uint256",
          "name": "",
          "type": "uint256"
        }
      ],
      "stateMutability": "view",
      "type": "function"
    },
    {
      "inputs": [],
      "name": "initialize",
      "outputs": [],
      "stateMutability": "nonpayable",
      "type": "function"
    },
    {
      "inputs": [],
      "name": "owner",
      "outputs": [
        {
          "internalType": "address",
          "name": "",
          "type": "address"
        }
      ],
      "stateMutability": "view",
      "type": "function"
    },
    {
      "inputs": [],
      "name": "renounceOwnership",
      "outputs": [],
      "stateMutability": "nonpayable",
      "type": "function"
    },
    {
      "inputs": [
        {
          "internalType": "address",
          "name": "newOwner",
          "type": "address"
        }
      ],
      "name": "transferOwnership",
      "outputs": [],
      "stateMutability": "nonpayable",
      "type": "function"
    }
  ],
  "bytecode": "0x608060405234801561001057600080fd5b50611f78806100206000396000f3fe608060405234801561001057600080fd5b50600436106100a95760003560e01c8063a2bcf69e11610071578063a2bcf69e14610118578063a6c75e2f14610134578063c7cec48714610164578063cc928bce14610194578063dd533831146101b0578063f2fde38b146101cc576100a9565b806302a075d9146100ae5780636195b16e146100ca578063715018a6146100e65780638129fc1c146100f05780638da5cb5b146100fa575b600080fd5b6100c860048036038101906100c39190611532565b6101e8565b005b6100e460048036038101906100df919061137d565b6103e2565b005b6100ee6104d6565b005b6100f861055e565b005b61010261063f565b60405161010f9190611a51565b60405180910390f35b610132600480360381019061012d91906115d9565b610669565b005b61014e600480360381019061014991906114a7565b61086f565b60405161015b9190611c28565b60405180910390f35b61017e600480360381019061017991906114a7565b61089e565b60405161018b9190611c28565b60405180910390f35b6101ae60048036038101906101a991906114e3565b6108cd565b005b6101ca60048036038101906101c591906113fc565b610ac1565b005b6101e660048036038101906101e19190611354565b610c04565b005b60006101f48686610cfc565b905060006065600083815260200190815260200160002060000160009054906101000a900460ff1660ff161415610260576040517f08c379a000000000000000000000000000000000000000000000000000000000815260040161025790611b55565b60405180910390fd5b610268610d2f565b73ffffffffffffffffffffffffffffffffffffffff166066600083815260200190815260200160002060009054906101000a900473ffffffffffffffffffffffffffffffffffffffff1673ffffffffffffffffffffffffffffffffffffffff1614610308576040517f08c379a00000000000000000000000000000000000000000000000000000000081526004016102ff90611ab5565b60405180910390fd5b6065600082815260200190815260200160002073__$1318ec46aab23773e2b97b835ab63c28b8$__6368f2201690918686866040518563ffffffff1660e01b81526004016103599493929190611b9e565b60006040518083038186803b15801561037157600080fd5b505af4158015610385573d6000803e3d6000fd5b5050505084867f0b7f78a31acf364412aefb667523989ce1f6c324cfebcc5a7f7551b69a8d127c8660656000868152602001908152602001600020600101546040516103d2929190611c43565b60405180910390a3505050505050565b8051825114610426576040517f08c379a000000000000000000000000000000000000000000000000000000000815260040161041d90611b35565b60405180910390fd5b60005b82518110156104d0576104bd8484838151811061046f577f4e487b7100000000000000000000000000000000000000000000000000000000600052603260045260246000fd5b60200260200101518484815181106104b0577f4e487b7100000000000000000000000000000000000000000000000000000000600052603260045260246000fd5b60200260200101516108cd565b80806104c890611e35565b915050610429565b50505050565b6104de610d2f565b73ffffffffffffffffffffffffffffffffffffffff166104fc61063f565b73ffffffffffffffffffffffffffffffffffffffff1614610552576040517f08c379a000000000000000000000000000000000000000000000000000000000815260040161054990611af5565b60405180910390fd5b61055c6000610d37565b565b600060019054906101000a900460ff1680610584575060008054906101000a900460ff16155b6105c3576040517f08c379a00000000000000000000000000000000000000000000000000000000081526004016105ba90611ad5565b60405180910390fd5b60008060019054906101000a900460ff161590508015610613576001600060016101000a81548160ff02191690831515021790555060016000806101000a81548160ff0219169083151502179055505b61061b610dfd565b801561063c5760008060016101000a81548160ff0219169083151502179055505b50565b6000603360009054906101000a900473ffffffffffffffffffffffffffffffffffffffff16905090565b610671610d2f565b73ffffffffffffffffffffffffffffffffffffffff1661068f61063f565b73ffffffffffffffffffffffffffffffffffffffff16146106e5576040517f08c379a00000000000000000000000000000000000000000000000000000000081526004016106dc90611af5565b60405180910390fd5b60006106f18585610cfc565b905060006065600083815260200190815260200160002060000160009054906101000a900460ff1660ff161461075c576040517f08c379a000000000000000000000000000000000000000000000000000000000815260040161075390611b15565b60405180910390fd5b6065600082815260200190815260200160002073__$1318ec46aab23773e2b97b835ab63c28b8$__63951d991f90918560006040518463ffffffff1660e01b81526004016107ac93929190611bf1565b60006040518083038186803b1580156107c457600080fd5b505af41580156107d8573d6000803e3d6000fd5b50505050816066600083815260200190815260200160002060006101000a81548173ffffffffffffffffffffffffffffffffffffffff021916908373ffffffffffffffffffffffffffffffffffffffff160217905550847fb4ff2f5d70978594ead0f26c19e974851edeaadcf481b3a2d252d5426f5e87878585604051610860929190611a6c565b60405180910390a25050505050565b60008061087c8484610cfc565b9050606560008281526020019081526020016000206002015491505092915050565b6000806108ab8484610cfc565b9050606560008281526020019081526020016000206001015491505092915050565b60006108d98484610cfc565b905060006065600083815260200190815260200160002060000160009054906101000a900460ff1660ff161415610945576040517f08c379a000000000000000000000000000000000000000000000000000000000815260040161093c90611b55565b60405180910390fd5b61094d610d2f565b73ffffffffffffffffffffffffffffffffffffffff166066600083815260200190815260200160002060009054906101000a900473ffffffffffffffffffffffffffffffffffffffff1673ffffffffffffffffffffffffffffffffffffffff16146109ed576040517f08c379a00000000000000000000000000000000000000000000000000000000081526004016109e490611ab5565b60405180910390fd5b6065600082815260200190815260200160002073__$1318ec46aab23773e2b97b835ab63c28b8$__63bbfc877f9091846040518363ffffffff1660e01b8152600401610a3a929190611b75565b60006040518083038186803b158015610a5257600080fd5b505af4158015610a66573d6000803e3d6000fd5b5050505082847f382dc66b6ed7d4b00ae522ce901bb92e2894c0edbba7134d3c31782e4646151d846065600086815260200190815260200160002060010154604051610ab3929190611c43565b60405180910390a350505050565b81518351148015610ad3575080518351145b610b12576040517f08c379a0000000000000000000000000000000000000000000000000000000008152600401610b0990611b35565b60405180910390fd5b60005b8351811015610bfd57610bea85858381518110610b5b577f4e487b7100000000000000000000000000000000000000000000000000000000600052603260045260246000fd5b6020026020010151858481518110610b9c577f4e487b7100000000000000000000000000000000000000000000000000000000600052603260045260246000fd5b6020026020010151858581518110610bdd577f4e487b7100000000000000000000000000000000000000000000000000000000600052603260045260246000fd5b6020026020010151610669565b8080610bf590611e35565b915050610b15565b5050505050565b610c0c610d2f565b73ffffffffffffffffffffffffffffffffffffffff16610c2a61063f565b73ffffffffffffffffffffffffffffffffffffffff1614610c80576040517f08c379a0000000000000000000000000000000000000000000000000000000008152600401610c7790611af5565b60405180910390fd5b600073ffffffffffffffffffffffffffffffffffffffff168173ffffffffffffffffffffffffffffffffffffffff161415610cf0576040517f08c379a0000000000000000000000000000000000000000000000000000000008152600401610ce790611a95565b60405180910390fd5b610cf981610d37565b50565b60008282604051602001610d11929190611a25565b60405160208183030381529060405280519060200120905092915050565b600033905090565b6000603360009054906101000a900473ffffffffffffffffffffffffffffffffffffffff16905081603360006101000a81548173ffffffffffffffffffffffffffffffffffffffff021916908373ffffffffffffffffffffffffffffffffffffffff1602179055508173ffffffffffffffffffffffffffffffffffffffff168173ffffffffffffffffffffffffffffffffffffffff167f8be0079c531659141344cd1fd0a4f28419497f9722a3daafe3b4186f6b6457e060405160405180910390a35050565b600060019054906101000a900460ff1680610e23575060008054906101000a900460ff16155b610e62576040517f08c379a0000000000000000000000000000000000000000000000000000000008152600401610e5990611ad5565b60405180910390fd5b60008060019054906101000a900460ff161590508015610eb2576001600060016101000a81548160ff02191690831515021790555060016000806101000a81548160ff0219169083151502179055505b610eba610ee6565b610ec2610fbf565b8015610ee35760008060016101000a81548160ff0219169083151502179055505b50565b600060019054906101000a900460ff1680610f0c575060008054906101000a900460ff16155b610f4b576040517f08c379a0000000000000000000000000000000000000000000000000000000008152600401610f4290611ad5565b60405180910390fd5b60008060019054906101000a900460ff161590508015610f9b576001600060016101000a81548160ff02191690831515021790555060016000806101000a81548160ff0219169083151502179055505b8015610fbc5760008060016101000a81548160ff0219169083151502179055505b50565b600060019054906101000a900460ff1680610fe5575060008054906101000a900460ff16155b611024576040517f08c379a000000000000000000000000000000000000000000000000000000000815260040161101b90611ad5565b60405180910390fd5b60008060019054906101000a900460ff161590508015611074576001600060016101000a81548160ff02191690831515021790555060016000806101000a81548160ff0219169083151502179055505b61108461107f610d2f565b610d37565b80156110a55760008060016101000a81548160ff0219169083151502179055505b50565b60006110bb6110b684611c9d565b611c6c565b905080838252602082019050828560208602820111156110da57600080fd5b60005b8581101561110a57816110f08882611258565b8452602084019350602083019250506001810190506110dd565b5050509392505050565b600061112761112284611cc9565b611c6c565b9050808382526020820190508285602086028201111561114657600080fd5b60005b85811015611176578161115c8882611315565b845260208401935060208301925050600181019050611149565b5050509392505050565b600061119361118e84611cf5565b611c6c565b905080838252602082019050828560208602820111156111b257600080fd5b60005b858110156111e257816111c8888261132a565b8452602084019350602083019250506001810190506111b5565b5050509392505050565b60006111ff6111fa84611d21565b611c6c565b9050808382526020820190508285602086028201111561121e57600080fd5b60005b8581101561124e5781611234888261133f565b845260208401935060208301925050600181019050611221565b5050509392505050565b60008135905061126781611ee6565b92915050565b600082601f83011261127e57600080fd5b813561128e8482602086016110a8565b91505092915050565b600082601f8301126112a857600080fd5b81356112b8848260208601611114565b91505092915050565b600082601f8301126112d257600080fd5b81356112e2848260208601611180565b91505092915050565b600082601f8301126112fc57600080fd5b813561130c8482602086016111ec565b91505092915050565b60008135905061132481611efd565b92915050565b60008135905061133981611f14565b92915050565b60008135905061134e81611f2b565b92915050565b60006020828403121561136657600080fd5b600061137484828501611258565b91505092915050565b60008060006060848603121561139257600080fd5b60006113a086828701611315565b935050602084013567ffffffffffffffff8111156113bd57600080fd5b6113c986828701611297565b925050604084013567ffffffffffffffff8111156113e657600080fd5b6113f2868287016112c1565b9150509250925092565b6000806000806080858703121561141257600080fd5b600061142087828801611315565b945050602085013567ffffffffffffffff81111561143d57600080fd5b61144987828801611297565b935050604085013567ffffffffffffffff81111561146657600080fd5b611472878288016112eb565b925050606085013567ffffffffffffffff81111561148f57600080fd5b61149b8782880161126d565b91505092959194509250565b600080604083850312156114ba57600080fd5b60006114c885828601611315565b92505060206114d985828601611315565b9150509250929050565b6000806000606084860312156114f857600080fd5b600061150686828701611315565b935050602061151786828701611315565b92505060406115288682870161132a565b9150509250925092565b600080600080600060a0868803121561154a57600080fd5b600061155888828901611315565b955050602061156988828901611315565b945050604061157a8882890161132a565b935050606086013567ffffffffffffffff81111561159757600080fd5b6115a3888289016112c1565b925050608086013567ffffffffffffffff8111156115c057600080fd5b6115cc888289016112eb565b9150509295509295909350565b600080600080608085870312156115ef57600080fd5b60006115fd87828801611315565b945050602061160e87828801611315565b935050604061161f8782880161133f565b925050606061163087828801611258565b91505092959194509250565b600061164883836119e9565b60208301905092915050565b60006116608383611a16565b60208301905092915050565b61167581611dd0565b82525050565b600061168682611d6d565b6116908185611d9d565b935061169b83611d4d565b8060005b838110156116cc5781516116b3888261163c565b97506116be83611d83565b92505060018101905061169f565b5085935050505092915050565b60006116e482611d78565b6116ee8185611dae565b93506116f983611d5d565b8060005b8381101561172a5781516117118882611654565b975061171c83611d90565b9250506001810190506116fd565b5085935050505092915050565b61174081611de2565b82525050565b61175761175282611de2565b611e7e565b82525050565b61176681611e23565b82525050565b6000611779602683611dbf565b91507f4f776e61626c653a206e6577206f776e657220697320746865207a65726f206160008301527f64647265737300000000000000000000000000000000000000000000000000006020830152604082019050919050565b60006117df602583611dbf565b91507f47726f7570733a2063616c6c6572206973206e6f74207468652067726f75702060008301527f61646d696e0000000000000000000000000000000000000000000000000000006020830152604082019050919050565b6000611845602e83611dbf565b91507f496e697469616c697a61626c653a20636f6e747261637420697320616c72656160008301527f647920696e697469616c697a65640000000000000000000000000000000000006020830152604082019050919050565b60006118ab602083611dbf565b91507f4f776e61626c653a2063616c6c6572206973206e6f7420746865206f776e65726000830152602082019050919050565b60006118eb601c83611dbf565b91507f47726f7570733a2067726f757020616c726561647920657869737473000000006000830152602082019050919050565b600061192b603483611dbf565b91507f47726f7570733a20617272617920706172616d65746572732073686f756c642060008301527f68617665207468652073616d65206c656e6774680000000000000000000000006020830152604082019050919050565b6000611991601c83611dbf565b91507f47726f7570733a2067726f757020646f6573206e6f74206578697374000000006000830152602082019050919050565b8082525050565b6119d481611e0c565b82525050565b6119e381611e0c565b82525050565b6119f281611e0c565b82525050565b611a0181611e16565b82525050565b611a1081611e16565b82525050565b611a1f81611e16565b82525050565b6000611a318285611746565b602082019150611a418284611746565b6020820191508190509392505050565b6000602082019050611a66600083018461166c565b92915050565b6000604082019050611a816000830185611737565b611a8e60208301846119f8565b9392505050565b60006020820190508181036000830152611aae8161176c565b9050919050565b60006020820190508181036000830152611ace816117d2565b9050919050565b60006020820190508181036000830152611aee81611838565b9050919050565b60006020820190508181036000830152611b0e8161189e565b9050919050565b60006020820190508181036000830152611b2e816118de565b9050919050565b60006020820190508181036000830152611b4e8161191e565b9050919050565b60006020820190508181036000830152611b6e81611984565b9050919050565b6000604082019050611b8a60008301856119c4565b611b9760208301846119da565b9392505050565b6000608082019050611bb360008301876119c4565b611bc060208301866119da565b8181036040830152611bd2818561167b565b90508181036060830152611be681846116d9565b905095945050505050565b6000606082019050611c0660008301866119c4565b611c136020830185611a07565b611c20604083018461175d565b949350505050565b6000602082019050611c3d60008301846119cb565b92915050565b6000604082019050611c5860008301856119cb565b611c6560208301846119cb565b9392505050565b6000604051905081810181811067ffffffffffffffff82111715611c9357611c92611eb7565b5b8060405250919050565b600067ffffffffffffffff821115611cb857611cb7611eb7565b5b602082029050602081019050919050565b600067ffffffffffffffff821115611ce457611ce3611eb7565b5b602082029050602081019050919050565b600067ffffffffffffffff821115611d1057611d0f611eb7565b5b602082029050602081019050919050565b600067ffffffffffffffff821115611d3c57611d3b611eb7565b5b602082029050602081019050919050565b6000819050602082019050919050565b6000819050602082019050919050565b600081519050919050565b600081519050919050565b6000602082019050919050565b6000602082019050919050565b600082825260208201905092915050565b600082825260208201905092915050565b600082825260208201905092915050565b6000611ddb82611dec565b9050919050565b6000819050919050565b600073ffffffffffffffffffffffffffffffffffffffff82169050919050565b6000819050919050565b600060ff82169050919050565b6000611e2e82611e0c565b9050919050565b6000611e4082611e0c565b91507fffffffffffffffffffffffffffffffffffffffffffffffffffffffffffffffff821415611e7357611e72611e88565b5b600182019050919050565b6000819050919050565b7f4e487b7100000000000000000000000000000000000000000000000000000000600052601160045260246000fd5b7f4e487b7100000000000000000000000000000000000000000000000000000000600052604160045260246000fd5b611eef81611dd0565b8114611efa57600080fd5b50565b611f0681611de2565b8114611f1157600080fd5b50565b611f1d81611e0c565b8114611f2857600080fd5b50565b611f3481611e16565b8114611f3f57600080fd5b5056fea2646970667358221220dabeb5ebb20ce2970159635b6d909db2e184a81adc81c1eeb98e0714ecc393ff64736f6c63430008000033",
  "linkReferences": {
    "contracts/IncrementalTree.sol": {
      "IncrementalTree": [
        {
          "length": 20,
          "start": 829
        },
        {
          "length": 20,
          "start": 1937
        },
        {
          "length": 20,
          "start": 2594
        }
      ]
    }
  },
  "deployedLinkReferences": {
    "contracts/IncrementalTree.sol": {
      "IncrementalTree": [
        {
          "length": 20,
          "start": 797
        },
        {
          "length": 20,
          "start": 1905
        },
        {
          "length": 20,
          "start": 2562
        }
      ]
    }
  }
}