{
  "_format": "hh-sol-artifact-1",
  "contractName": "Interep",
  "sourceName": "contracts/Interep.sol",
  "abi": [
    {
      "inputs": [
        {
          "internalType": "uint8[]",
          "name": "depths",
          "type": "uint8[]"
        },
        {
          "internalType": "address[]",
          "name": "verifierAddresses",
          "type": "address[]"
        }
      ],
      "stateMutability": "nonpayable",
      "type": "constructor"
    },
    {
      "anonymous": false,
      "inputs": [
        {
          "indexed": true,
          "internalType": "uint256",
          "name": "groupId",
          "type": "uint256"
        },
        {
          "indexed": false,
          "internalType": "uint8",
          "name": "depth",
          "type": "uint8"
        }
      ],
      "name": "GroupAdded",
      "type": "event"
    },
    {
      "anonymous": false,
      "inputs": [
        {
          "indexed": true,
          "internalType": "uint256",
          "name": "groupId",
          "type": "uint256"
        },
        {
          "indexed": false,
          "internalType": "uint256",
          "name": "identityCommitment",
          "type": "uint256"
        },
        {
          "indexed": false,
          "internalType": "uint256",
          "name": "root",
          "type": "uint256"
        }
      ],
      "name": "MemberAdded",
      "type": "event"
    },
    {
      "anonymous": false,
      "inputs": [
        {
          "indexed": true,
          "internalType": "uint256",
          "name": "groupId",
          "type": "uint256"
        },
        {
          "indexed": false,
          "internalType": "uint256",
          "name": "identityCommitment",
          "type": "uint256"
        },
        {
          "indexed": false,
          "internalType": "uint256",
          "name": "root",
          "type": "uint256"
        }
      ],
      "name": "MemberRemoved",
      "type": "event"
    },
    {
      "anonymous": false,
      "inputs": [
        {
          "indexed": false,
          "internalType": "uint256",
          "name": "nullifierHash",
          "type": "uint256"
        }
      ],
      "name": "NullifierHashAdded",
      "type": "event"
    },
    {
      "anonymous": false,
      "inputs": [
        {
          "indexed": true,
          "internalType": "uint256",
          "name": "groupId",
          "type": "uint256"
        },
        {
          "indexed": false,
          "internalType": "uint256",
          "name": "root",
          "type": "uint256"
        },
        {
          "indexed": false,
          "internalType": "uint8",
          "name": "depth",
          "type": "uint8"
        }
      ],
      "name": "OffchainGroupAdded",
      "type": "event"
    },
    {
      "anonymous": false,
      "inputs": [
        {
          "indexed": true,
          "internalType": "address",
          "name": "previousOwner",
          "type": "address"
        },
        {
          "indexed": true,
          "internalType": "address",
          "name": "newOwner",
          "type": "address"
        }
      ],
      "name": "OwnershipTransferred",
      "type": "event"
    },
    {
      "anonymous": false,
      "inputs": [
        {
          "indexed": true,
          "internalType": "uint256",
          "name": "groupId",
          "type": "uint256"
        },
        {
          "indexed": false,
          "internalType": "string",
          "name": "signal",
          "type": "string"
        }
      ],
      "name": "ProofVerified",
      "type": "event"
    },
    {
      "inputs": [
        {
          "internalType": "uint256",
          "name": "groupId",
          "type": "uint256"
        },
        {
          "internalType": "uint256",
          "name": "identityCommitment",
          "type": "uint256"
        }
      ],
      "name": "addMember",
      "outputs": [],
      "stateMutability": "nonpayable",
      "type": "function"
    },
    {
      "inputs": [
        {
          "internalType": "uint256[]",
          "name": "groupIds",
          "type": "uint256[]"
        },
        {
          "components": [
            {
              "internalType": "uint256",
              "name": "root",
              "type": "uint256"
            },
            {
              "internalType": "uint8",
              "name": "depth",
              "type": "uint8"
            }
          ],
          "internalType": "struct IInterepGroups.OffchainGroup[]",
          "name": "groups",
          "type": "tuple[]"
        }
      ],
      "name": "addOffchainGroups",
      "outputs": [],
      "stateMutability": "nonpayable",
      "type": "function"
    },
    {
      "inputs": [
        {
          "internalType": "uint256",
          "name": "groupId",
          "type": "uint256"
        },
        {
          "internalType": "uint8",
          "name": "depth",
          "type": "uint8"
        },
        {
          "internalType": "address",
          "name": "admin",
          "type": "address"
        }
      ],
      "name": "createGroup",
      "outputs": [],
      "stateMutability": "nonpayable",
      "type": "function"
    },
    {
      "inputs": [
        {
          "internalType": "uint256",
          "name": "groupId",
          "type": "uint256"
        }
      ],
      "name": "getDepth",
      "outputs": [
        {
          "internalType": "uint8",
          "name": "",
          "type": "uint8"
        }
      ],
      "stateMutability": "view",
      "type": "function"
    },
    {
      "inputs": [
        {
          "internalType": "uint256",
          "name": "groupId",
          "type": "uint256"
        }
      ],
      "name": "getOffchainDepth",
      "outputs": [
        {
          "internalType": "uint8",
          "name": "",
          "type": "uint8"
        }
      ],
      "stateMutability": "view",
      "type": "function"
    },
    {
      "inputs": [
        {
          "internalType": "uint256",
          "name": "groupId",
          "type": "uint256"
        }
      ],
      "name": "getOffchainRoot",
      "outputs": [
        {
          "internalType": "uint256",
          "name": "",
          "type": "uint256"
        }
      ],
      "stateMutability": "view",
      "type": "function"
    },
    {
      "inputs": [
        {
          "internalType": "uint256",
          "name": "groupId",
          "type": "uint256"
        }
      ],
      "name": "getRoot",
      "outputs": [
        {
          "internalType": "uint256",
          "name": "",
          "type": "uint256"
        }
      ],
      "stateMutability": "view",
      "type": "function"
    },
    {
      "inputs": [
        {
          "internalType": "uint256",
          "name": "groupId",
          "type": "uint256"
        }
      ],
      "name": "getSize",
      "outputs": [
        {
          "internalType": "uint256",
          "name": "",
          "type": "uint256"
        }
      ],
      "stateMutability": "view",
      "type": "function"
    },
    {
      "inputs": [
        {
          "internalType": "uint256",
          "name": "",
          "type": "uint256"
        }
      ],
      "name": "groupAdmins",
      "outputs": [
        {
          "internalType": "address",
          "name": "",
          "type": "address"
        }
      ],
      "stateMutability": "view",
      "type": "function"
    },
    {
      "inputs": [
        {
          "internalType": "uint256",
          "name": "",
          "type": "uint256"
        }
      ],
      "name": "offchainGroups",
      "outputs": [
        {
          "internalType": "uint256",
          "name": "root",
          "type": "uint256"
        },
        {
          "internalType": "uint8",
          "name": "depth",
          "type": "uint8"
        }
      ],
      "stateMutability": "view",
      "type": "function"
    },
    {
      "inputs": [],
      "name": "owner",
      "outputs": [
        {
          "internalType": "address",
          "name": "",
          "type": "address"
        }
      ],
      "stateMutability": "view",
      "type": "function"
    },
    {
      "inputs": [
        {
          "internalType": "uint256",
          "name": "groupId",
          "type": "uint256"
        },
        {
          "internalType": "uint256",
          "name": "identityCommitment",
          "type": "uint256"
        },
        {
          "internalType": "uint256[]",
          "name": "proofSiblings",
          "type": "uint256[]"
        },
        {
          "internalType": "uint8[]",
          "name": "proofPathIndices",
          "type": "uint8[]"
        }
      ],
      "name": "removeMember",
      "outputs": [],
      "stateMutability": "nonpayable",
      "type": "function"
    },
    {
      "inputs": [],
      "name": "renounceOwnership",
      "outputs": [],
      "stateMutability": "nonpayable",
      "type": "function"
    },
    {
      "inputs": [
        {
          "internalType": "address",
          "name": "newOwner",
          "type": "address"
        }
      ],
      "name": "transferOwnership",
      "outputs": [],
      "stateMutability": "nonpayable",
      "type": "function"
    },
    {
      "inputs": [
        {
          "internalType": "uint8",
          "name": "",
          "type": "uint8"
        }
      ],
      "name": "verifiers",
      "outputs": [
        {
          "internalType": "contract IVerifier",
          "name": "",
          "type": "address"
        }
      ],
      "stateMutability": "view",
      "type": "function"
    },
    {
      "inputs": [
        {
          "internalType": "uint256",
          "name": "groupId",
          "type": "uint256"
        },
        {
          "internalType": "string",
          "name": "signal",
          "type": "string"
        },
        {
          "internalType": "uint256",
          "name": "nullifierHash",
          "type": "uint256"
        },
        {
          "internalType": "uint256",
          "name": "externalNullifier",
          "type": "uint256"
        },
        {
          "internalType": "uint256[8]",
          "name": "proof",
          "type": "uint256[8]"
        }
      ],
      "name": "verifyProof",
      "outputs": [],
      "stateMutability": "nonpayable",
      "type": "function"
    }
  ],
  "bytecode": "0x60806040523480156200001157600080fd5b5060405162002fe738038062002fe78339818101604052810190620000379190620003ed565b620000576200004b620001ad60201b60201c565b620001b560201b60201c565b80518251146200009e576040517f08c379a0000000000000000000000000000000000000000000000000000000008152600401620000959062000487565b60405180910390fd5b60005b82518160ff161015620001a457818160ff1681518110620000eb577f4e487b7100000000000000000000000000000000000000000000000000000000600052603260045260246000fd5b602002602001015160066000858460ff168151811062000134577f4e487b7100000000000000000000000000000000000000000000000000000000600052603260045260246000fd5b602002602001015160ff1660ff16815260200190815260200160002060006101000a81548173ffffffffffffffffffffffffffffffffffffffff021916908373ffffffffffffffffffffffffffffffffffffffff16021790555080806200019b90620005b8565b915050620000a1565b505050620006d9565b600033905090565b6000600160009054906101000a900473ffffffffffffffffffffffffffffffffffffffff16905081600160006101000a81548173ffffffffffffffffffffffffffffffffffffffff021916908373ffffffffffffffffffffffffffffffffffffffff1602179055508173ffffffffffffffffffffffffffffffffffffffff168173ffffffffffffffffffffffffffffffffffffffff167f8be0079c531659141344cd1fd0a4f28419497f9722a3daafe3b4186f6b6457e060405160405180910390a35050565b6000620002926200028c84620004d2565b620004a9565b90508083825260208201905082856020860282011115620002b257600080fd5b60005b85811015620002e65781620002cb888262000365565b845260208401935060208301925050600181019050620002b5565b5050509392505050565b600062000307620003018462000501565b620004a9565b905080838252602082019050828560208602820111156200032757600080fd5b60005b858110156200035b5781620003408882620003d6565b8452602084019350602083019250506001810190506200032a565b5050509392505050565b6000815190506200037681620006a5565b92915050565b600082601f8301126200038e57600080fd5b8151620003a08482602086016200027b565b91505092915050565b600082601f830112620003bb57600080fd5b8151620003cd848260208601620002f0565b91505092915050565b600081519050620003e781620006bf565b92915050565b600080604083850312156200040157600080fd5b600083015167ffffffffffffffff8111156200041c57600080fd5b6200042a85828601620003a9565b925050602083015167ffffffffffffffff8111156200044857600080fd5b62000456858286016200037c565b9150509250929050565b60006200046f60378362000530565b91506200047c8262000656565b604082019050919050565b60006020820190508181036000830152620004a28162000460565b9050919050565b6000620004b5620004c8565b9050620004c3828262000582565b919050565b6000604051905090565b600067ffffffffffffffff821115620004f057620004ef62000616565b5b602082029050602081019050919050565b600067ffffffffffffffff8211156200051f576200051e62000616565b5b602082029050602081019050919050565b600082825260208201905092915050565b60006200054e8262000555565b9050919050565b600073ffffffffffffffffffffffffffffffffffffffff82169050919050565b600060ff82169050919050565b6200058d8262000645565b810181811067ffffffffffffffff82111715620005af57620005ae62000616565b5b80604052505050565b6000620005c58262000575565b915060ff821415620005dc57620005db620005e7565b5b600182019050919050565b7f4e487b7100000000000000000000000000000000000000000000000000000000600052601160045260246000fd5b7f4e487b7100000000000000000000000000000000000000000000000000000000600052604160045260246000fd5b6000601f19601f8301169050919050565b7f496e74657265703a20706172616d6574657273206c6973747320646f6573206e60008201527f6f742068617665207468652073616d65206c656e677468000000000000000000602082015250565b620006b08162000541565b8114620006bc57600080fd5b50565b620006ca8162000575565b8114620006d657600080fd5b50565b6128fe80620006e96000396000f3fe608060405234801561001057600080fd5b50600436106101005760003560e01c8063715018a6116100975780639b7b2eb0116100665780639b7b2eb0146102d2578063ac28eacd146102ee578063c156f4c31461031e578063f2fde38b1461033a57610100565b8063715018a61461024a57806375e618c9146102545780638da5cb5b146102845780639b24b3b0146102a257610100565b80632d69be98116100d35780632d69be981461019e57806343989f85146101ce57806361b785e5146101ea57806361bcf78f1461021a57610100565b8063023c23db1461010557806304f820d314610135578063114433f1146101515780631783efc314610182575b600080fd5b61011f600480360381019061011a91906117b5565b610356565b60405161012c9190612131565b60405180910390f35b61014f600480360381019061014a91906117de565b610376565b005b61016b600480360381019061016691906117b5565b6104d1565b604051610179929190612175565b60405180910390f35b61019c60048036038101906101979190611871565b610502565b005b6101b860048036038101906101b39190611997565b6105b8565b6040516101c59190611efb565b60405180910390f35b6101e860048036038101906101e391906118ad565b6105eb565b005b61020460048036038101906101ff91906117b5565b6106a9565b6040516102119190612131565b60405180910390f35b610234600480360381019061022f91906117b5565b6106c9565b604051610241919061219e565b60405180910390f35b6102526106f6565b005b61026e600480360381019061026991906117b5565b61077e565b60405161027b919061219e565b60405180910390f35b61028c6107ab565b6040516102999190611e99565b60405180910390f35b6102bc60048036038101906102b791906117b5565b6107d5565b6040516102c99190612131565b60405180910390f35b6102ec60048036038101906102e79190611717565b6107f5565b005b610308600480360381019061030391906117b5565b610b2e565b6040516103159190611e99565b60405180910390f35b61033860048036038101906103339190611948565b610b61565b005b610354600480360381019061034f91906116ee565b610bc2565b005b600060026000838152602001908152602001600020600201549050919050565b6000610381876107d5565b9050600061038e8861077e565b905060008214156103b0576103a2886106a9565b91506103ad886106c9565b90505b60008160ff1614156103f7576040517f08c379a00000000000000000000000000000000000000000000000000000000081526004016103ee90611f7a565b60405180910390fd5b6000600660008360ff1660ff16815260200190815260200160002060009054906101000a900473ffffffffffffffffffffffffffffffffffffffff16905061044488888589898987610cba565b610483576040517f08c379a000000000000000000000000000000000000000000000000000000000815260040161047a9061203a565b60405180910390fd5b61048c86611041565b887f6ab1c9e4ef72052f6a58fbc8e7346e50c98e29f670385ed3ca5b6135fe25690889896040516104be929190611f16565b60405180910390a2505050505050505050565b60046020528060005260406000206000915090508060000154908060010160009054906101000a900460ff16905082565b61050a61106f565b73ffffffffffffffffffffffffffffffffffffffff166005600084815260200190815260200160002060009054906101000a900473ffffffffffffffffffffffffffffffffffffffff1673ffffffffffffffffffffffffffffffffffffffff16146105aa576040517f08c379a00000000000000000000000000000000000000000000000000000000081526004016105a190611fba565b60405180910390fd5b6105b48282611077565b5050565b60066020528060005260406000206000915054906101000a900473ffffffffffffffffffffffffffffffffffffffff1681565b6105f361106f565b73ffffffffffffffffffffffffffffffffffffffff166005600088815260200190815260200160002060009054906101000a900473ffffffffffffffffffffffffffffffffffffffff1673ffffffffffffffffffffffffffffffffffffffff1614610693576040517f08c379a000000000000000000000000000000000000000000000000000000000815260040161068a90611fba565b60405180910390fd5b6106a18686868686866111a7565b505050505050565b600060046000838152602001908152602001600020600001549050919050565b60006004600083815260200190815260200160002060010160009054906101000a900460ff169050919050565b6106fe61106f565b73ffffffffffffffffffffffffffffffffffffffff1661071c6107ab565b73ffffffffffffffffffffffffffffffffffffffff1614610772576040517f08c379a00000000000000000000000000000000000000000000000000000000081526004016107699061201a565b60405180910390fd5b61077c60006112f9565b565b60006002600083815260200190815260200160002060000160009054906101000a900460ff169050919050565b6000600160009054906101000a900473ffffffffffffffffffffffffffffffffffffffff16905090565b600060026000838152602001908152602001600020600101549050919050565b6107fd61106f565b73ffffffffffffffffffffffffffffffffffffffff1661081b6107ab565b73ffffffffffffffffffffffffffffffffffffffff1614610871576040517f08c379a00000000000000000000000000000000000000000000000000000000081526004016108689061201a565b60405180910390fd5b8181905084849050146108b9576040517f08c379a00000000000000000000000000000000000000000000000000000000081526004016108b09061205a565b60405180910390fd5b60005b848490508160ff161015610b2757600061091786868460ff1681811061090b577f4e487b7100000000000000000000000000000000000000000000000000000000600052603260045260246000fd5b9050602002013561077e565b60ff161461095a576040517f08c379a000000000000000000000000000000000000000000000000000000000815260040161095190611fda565b60405180910390fd5b82828260ff16818110610996577f4e487b7100000000000000000000000000000000000000000000000000000000600052603260045260246000fd5b9050604002016004600087878560ff168181106109dc577f4e487b7100000000000000000000000000000000000000000000000000000000600052603260045260246000fd5b90506020020135815260200190815260200160002081816109fd9190612818565b90505084848260ff16818110610a3c577f4e487b7100000000000000000000000000000000000000000000000000000000600052603260045260246000fd5b905060200201357f69b70c6ced65d2c03e25d918bbd548c0f92104ec6330e066febcb8a362b2847084848460ff16818110610aa0577f4e487b7100000000000000000000000000000000000000000000000000000000600052603260045260246000fd5b9050604002016000013585858560ff16818110610ae6577f4e487b7100000000000000000000000000000000000000000000000000000000600052603260045260246000fd5b9050604002016020016020810190610afe9190611997565b604051610b0c929190612175565b60405180910390a28080610b1f906123a9565b9150506108bc565b5050505050565b60056020528060005260406000206000915054906101000a900473ffffffffffffffffffffffffffffffffffffffff1681565b610b6b83836113bf565b806005600085815260200190815260200160002060006101000a81548173ffffffffffffffffffffffffffffffffffffffff021916908373ffffffffffffffffffffffffffffffffffffffff160217905550505050565b610bca61106f565b73ffffffffffffffffffffffffffffffffffffffff16610be86107ab565b73ffffffffffffffffffffffffffffffffffffffff1614610c3e576040517f08c379a0000000000000000000000000000000000000000000000000000000008152600401610c359061201a565b60405180910390fd5b600073ffffffffffffffffffffffffffffffffffffffff168173ffffffffffffffffffffffffffffffffffffffff161415610cae576040517f08c379a0000000000000000000000000000000000000000000000000000000008152600401610ca590611f5a565b60405180910390fd5b610cb7816112f9565b50565b600080600086815260200190815260200160002060009054906101000a900460ff1615610d1c576040517f08c379a0000000000000000000000000000000000000000000000000000000008152600401610d1390611f3a565b60405180910390fd5b6000610d28898961151a565b9050600060405180608001604052808981526020018881526020018381526020018781525090508373ffffffffffffffffffffffffffffffffffffffff16635fe8c13b604051806040016040528088600060088110610db0577f4e487b7100000000000000000000000000000000000000000000000000000000600052603260045260246000fd5b6020020135815260200188600160088110610df4577f4e487b7100000000000000000000000000000000000000000000000000000000600052603260045260246000fd5b6020020135815250604051806040016040528060405180604001604052808b600260088110610e4c577f4e487b7100000000000000000000000000000000000000000000000000000000600052603260045260246000fd5b602002013581526020018b600360088110610e90577f4e487b7100000000000000000000000000000000000000000000000000000000600052603260045260246000fd5b6020020135815250815260200160405180604001604052808b600460088110610ee2577f4e487b7100000000000000000000000000000000000000000000000000000000600052603260045260246000fd5b602002013581526020018b600560088110610f26577f4e487b7100000000000000000000000000000000000000000000000000000000600052603260045260246000fd5b602002013581525081525060405180604001604052808a600660088110610f76577f4e487b7100000000000000000000000000000000000000000000000000000000600052603260045260246000fd5b602002013581526020018a600760088110610fba577f4e487b7100000000000000000000000000000000000000000000000000000000600052603260045260246000fd5b6020020135815250856040518563ffffffff1660e01b8152600401610fe29493929190611eb4565b60206040518083038186803b158015610ffa57600080fd5b505afa15801561100e573d6000803e3d6000fd5b505050506040513d601f19601f82011682018060405250810190611032919061178c565b92505050979650505050505050565b600160008083815260200190815260200160002060006101000a81548160ff02191690831515021790555050565b600033905090565b60006110828361077e565b60ff1614156110c6576040517f08c379a00000000000000000000000000000000000000000000000000000000081526004016110bd90611ffa565b60405180910390fd5b6002600083815260200190815260200160002073__$4c0484323457fe1a856f46a4759b553fe4$__63168703fa9091836040518363ffffffff1660e01b815260040161111392919061207a565b60006040518083038186803b15801561112b57600080fd5b505af415801561113f573d6000803e3d6000fd5b50505050600061114e836107d5565b9050826003600083815260200190815260200160002081905550827f03fd27265b7dd1f55558bedc22a58fa3b10afb1be776e614bd5a7ba7b9499406838360405161119a92919061214c565b60405180910390a2505050565b60006111b28761077e565b60ff1614156111f6576040517f08c379a00000000000000000000000000000000000000000000000000000000081526004016111ed90611ffa565b60405180910390fd5b6002600087815260200190815260200160002073__$4c0484323457fe1a856f46a4759b553fe4$__630629596f909187878787876040518763ffffffff1660e01b815260040161124b969594939291906120a3565b60006040518083038186803b15801561126357600080fd5b505af4158015611277573d6000803e3d6000fd5b505050506000611286876107d5565b9050866003600083815260200190815260200160002081905550867fe270325ded177064d7bda473e6519ef40a291058c41286f71a6e4872f1e9ab5c87600260008b8152602001908152602001600020600101546040516112e892919061214c565b60405180910390a250505050505050565b6000600160009054906101000a900473ffffffffffffffffffffffffffffffffffffffff16905081600160006101000a81548173ffffffffffffffffffffffffffffffffffffffff021916908373ffffffffffffffffffffffffffffffffffffffff1602179055508173ffffffffffffffffffffffffffffffffffffffff168173ffffffffffffffffffffffffffffffffffffffff167f8be0079c531659141344cd1fd0a4f28419497f9722a3daafe3b4186f6b6457e060405160405180910390a35050565b60006113ca8361077e565b60ff161461140d576040517f08c379a000000000000000000000000000000000000000000000000000000000815260040161140490611f9a565b60405180910390fd5b6002600083815260200190815260200160002073__$4c0484323457fe1a856f46a4759b553fe4$__63b4bdd1179091837f30644e72e131a029b85045b68181585d2833e84879b9709143e1f593f000000160405160200161146d90611e84565b6040516020818303038152906040528051906020012060001c61149091906123d3565b6040518463ffffffff1660e01b81526004016114ae939291906120fa565b60006040518083038186803b1580156114c657600080fd5b505af41580156114da573d6000803e3d6000fd5b50505050817f6e41c6ac154b547a2112d36281cc5de1cdfa7d7f260d4edf74f3ef59f9df0c598260405161150e919061219e565b60405180910390a25050565b600060088383604051602001611531929190611e6b565b6040516020818303038152906040528051906020012060001c901c905092915050565b6000813590506115638161286c565b92915050565b60008083601f84011261157b57600080fd5b8235905067ffffffffffffffff81111561159457600080fd5b6020830191508360408202830111156115ac57600080fd5b9250929050565b6000819050826020600802820111156115cb57600080fd5b92915050565b60008083601f8401126115e357600080fd5b8235905067ffffffffffffffff8111156115fc57600080fd5b60208301915083602082028301111561161457600080fd5b9250929050565b60008083601f84011261162d57600080fd5b8235905067ffffffffffffffff81111561164657600080fd5b60208301915083602082028301111561165e57600080fd5b9250929050565b60008151905061167481612883565b92915050565b60008083601f84011261168c57600080fd5b8235905067ffffffffffffffff8111156116a557600080fd5b6020830191508360018202830111156116bd57600080fd5b9250929050565b6000813590506116d38161289a565b92915050565b6000813590506116e8816128b1565b92915050565b60006020828403121561170057600080fd5b600061170e84828501611554565b91505092915050565b6000806000806040858703121561172d57600080fd5b600085013567ffffffffffffffff81111561174757600080fd5b611753878288016115d1565b9450945050602085013567ffffffffffffffff81111561177257600080fd5b61177e87828801611569565b925092505092959194509250565b60006020828403121561179e57600080fd5b60006117ac84828501611665565b91505092915050565b6000602082840312156117c757600080fd5b60006117d5848285016116c4565b91505092915050565b60008060008060008061018087890312156117f857600080fd5b600061180689828a016116c4565b965050602087013567ffffffffffffffff81111561182357600080fd5b61182f89828a0161167a565b9550955050604061184289828a016116c4565b935050606061185389828a016116c4565b925050608061186489828a016115b3565b9150509295509295509295565b6000806040838503121561188457600080fd5b6000611892858286016116c4565b92505060206118a3858286016116c4565b9150509250929050565b600080600080600080608087890312156118c657600080fd5b60006118d489828a016116c4565b96505060206118e589828a016116c4565b955050604087013567ffffffffffffffff81111561190257600080fd5b61190e89828a016115d1565b9450945050606087013567ffffffffffffffff81111561192d57600080fd5b61193989828a0161161b565b92509250509295509295509295565b60008060006060848603121561195d57600080fd5b600061196b868287016116c4565b935050602061197c868287016116d9565b925050604061198d86828701611554565b9150509250925092565b6000602082840312156119a957600080fd5b60006119b7848285016116d9565b91505092915050565b60006119cc8383611a6e565b60408301905092915050565b60006119e48383611e11565b60208301905092915050565b60006119fc8383611e5c565b60208301905092915050565b611a11816122b7565b82525050565b611a20816121e1565b611a2a8184612236565b9250611a35826121b9565b8060005b83811015611a66578151611a4d87826119c0565b9650611a5883612202565b925050600181019050611a39565b505050505050565b611a77816121ec565b611a818184612241565b9250611a8c826121c3565b8060005b83811015611abd578151611aa487826119d8565b9650611aaf8361220f565b925050600181019050611a90565b505050505050565b611ace816121ec565b611ad8818461224c565b9250611ae3826121c3565b8060005b83811015611b14578151611afb87826119d8565b9650611b068361220f565b925050600181019050611ae7565b505050505050565b611b25816121f7565b611b2f8184612257565b9250611b3a826121cd565b8060005b83811015611b6b578151611b5287826119d8565b9650611b5d8361221c565b925050600181019050611b3e565b505050505050565b6000611b7f8385612262565b93507f07ffffffffffffffffffffffffffffffffffffffffffffffffffffffffffffff831115611bae57600080fd5b602083029250611bbf838584612354565b82840190509392505050565b6000611bd78385612273565b9350611be2826121d7565b8060005b85811015611c1b57611bf882846122a0565b611c0288826119f0565b9750611c0d83612229565b925050600181019050611be6565b5085925050509392505050565b611c318161230c565b82525050565b6000611c438385612284565b9350611c50838584612354565b611c59836124a2565b840190509392505050565b6000611c708385612295565b9350611c7d838584612354565b82840190509392505050565b6000611c96603683612284565b9150611ca1826124c0565b604082019050919050565b6000611cb9602683612284565b9150611cc48261250f565b604082019050919050565b6000611cdc602183612284565b9150611ce78261255e565b604082019050919050565b6000611cff602583612284565b9150611d0a826125ad565b604082019050919050565b6000611d22602c83612284565b9150611d2d826125fc565b604082019050919050565b6000611d45600983612295565b9150611d508261264b565b600982019050919050565b6000611d68602e83612284565b9150611d7382612674565b604082019050919050565b6000611d8b602583612284565b9150611d96826126c3565b604082019050919050565b6000611dae602083612284565b9150611db982612712565b602082019050919050565b6000611dd1601f83612284565b9150611ddc8261273b565b602082019050919050565b6000611df4603d83612284565b9150611dff82612764565b604082019050919050565b8082525050565b611e1a816122f5565b82525050565b611e29816122f5565b82525050565b611e38816122f5565b82525050565b611e47816122ff565b82525050565b611e56816122ff565b82525050565b611e65816122ff565b82525050565b6000611e78828486611c64565b91508190509392505050565b6000611e8f82611d38565b9150819050919050565b6000602082019050611eae6000830184611a08565b92915050565b600061018082019050611eca6000830187611ac5565b611ed76040830186611a17565b611ee460c0830185611ac5565b611ef2610100830184611b1c565b95945050505050565b6000602082019050611f106000830184611c28565b92915050565b60006020820190508181036000830152611f31818486611c37565b90509392505050565b60006020820190508181036000830152611f5381611c89565b9050919050565b60006020820190508181036000830152611f7381611cac565b9050919050565b60006020820190508181036000830152611f9381611ccf565b9050919050565b60006020820190508181036000830152611fb381611cf2565b9050919050565b60006020820190508181036000830152611fd381611d15565b9050919050565b60006020820190508181036000830152611ff381611d5b565b9050919050565b6000602082019050818103600083015261201381611d7e565b9050919050565b6000602082019050818103600083015261203381611da1565b9050919050565b6000602082019050818103600083015261205381611dc4565b9050919050565b6000602082019050818103600083015261207381611de7565b9050919050565b600060408201905061208f6000830185611e0a565b61209c6020830184611e2f565b9392505050565b60006080820190506120b86000830189611e0a565b6120c56020830188611e2f565b81810360408301526120d8818688611b73565b905081810360608301526120ed818486611bcb565b9050979650505050505050565b600060608201905061210f6000830186611e0a565b61211c6020830185611e4d565b6121296040830184611e2f565b949350505050565b60006020820190506121466000830184611e20565b92915050565b60006040820190506121616000830185611e20565b61216e6020830184611e20565b9392505050565b600060408201905061218a6000830185611e20565b6121976020830184611e3e565b9392505050565b60006020820190506121b36000830184611e3e565b92915050565b6000819050919050565b6000819050919050565b6000819050919050565b6000819050919050565b600060029050919050565b600060029050919050565b600060049050919050565b6000602082019050919050565b6000602082019050919050565b6000602082019050919050565b6000602082019050919050565b600081905092915050565b600081905092915050565b600081905092915050565b600081905092915050565b600082825260208201905092915050565b600082825260208201905092915050565b600082825260208201905092915050565b600081905092915050565b60006122af60208401846116d9565b905092915050565b60006122c2826122d5565b9050919050565b60008115159050919050565b600073ffffffffffffffffffffffffffffffffffffffff82169050919050565b6000819050919050565b600060ff82169050919050565b60006123178261231e565b9050919050565b6000612329826122d5565b9050919050565b600061233b826122f5565b9050919050565b600061234d826122ff565b9050919050565b82818337600083830152505050565b60008101600083018061237581612476565b90506123818184612826565b5050506001810160208301806123968161248c565b90506123a28184612849565b5050505050565b60006123b4826122ff565b915060ff8214156123c8576123c7612404565b5b600182019050919050565b60006123de826122f5565b91506123e9836122f5565b9250826123f9576123f8612433565b5b828206905092915050565b7f4e487b7100000000000000000000000000000000000000000000000000000000600052601160045260246000fd5b7f4e487b7100000000000000000000000000000000000000000000000000000000600052601260045260246000fd5b6000819050919050565b6000819050919050565b600081356124838161289a565b80915050919050565b60008135612499816128b1565b80915050919050565b6000601f19601f8301169050919050565b60008160001b9050919050565b7f53656d6170686f7265436f72653a20796f752063616e6e6f742075736520746860008201527f652073616d65206e756c6c696669657220747769636500000000000000000000602082015250565b7f4f776e61626c653a206e6577206f776e657220697320746865207a65726f206160008201527f6464726573730000000000000000000000000000000000000000000000000000602082015250565b7f496e74657265703a207468652067726f757020646f6573206e6f74206578697360008201527f7400000000000000000000000000000000000000000000000000000000000000602082015250565b7f53656d6170686f726547726f7570733a2067726f757020616c7265616479206560008201527f7869737473000000000000000000000000000000000000000000000000000000602082015250565b7f496e746572657047726f7570733a2063616c6c6572206973206e6f742074686560008201527f2067726f75702061646d696e0000000000000000000000000000000000000000602082015250565b7f53656d6170686f72650000000000000000000000000000000000000000000000600082015250565b7f496e746572657047726f7570733a2067726f757020696420616c72656164792060008201527f657869737473206f6e636861696e000000000000000000000000000000000000602082015250565b7f53656d6170686f726547726f7570733a2067726f757020646f6573206e6f742060008201527f6578697374000000000000000000000000000000000000000000000000000000602082015250565b7f4f776e61626c653a2063616c6c6572206973206e6f7420746865206f776e6572600082015250565b7f496e74657265703a207468652070726f6f66206973206e6f742076616c696400600082015250565b7f496e746572657047726f7570733a20706172616d6574657273206c697374732060008201527f646f6573206e6f742068617665207468652073616d65206c656e677468000000602082015250565b600060ff6127c0846124b3565b9350801983169250808416831791505092915050565b60007fffffffffffffffffffffffffffffffffffffffffffffffffffffffffffffffff612802846124b3565b9350801983169250808416831791505092915050565b6128228282612363565b5050565b61282f82612330565b61284261283b82612462565b83546127d6565b8255505050565b61285282612342565b61286561285e8261246c565b83546127b3565b8255505050565b612875816122b7565b811461288057600080fd5b50565b61288c816122c9565b811461289757600080fd5b50565b6128a3816122f5565b81146128ae57600080fd5b50565b6128ba816122ff565b81146128c557600080fd5b5056fea2646970667358221220334631b9408b2323837c98b871708f544b9273f96387113403da24b7bf6e254b64736f6c63430008040033",
  "linkReferences": {
    "@zk-kit/incremental-merkle-tree.sol/contracts/IncrementalBinaryTree.sol": {
      "IncrementalBinaryTree": [
        {
          "length": 20,
          "start": 6084
        },
        {
          "length": 20,
          "start": 6388
        },
        {
          "length": 20,
          "start": 6923
        }
      ]
    }
  },
  "deployedLinkReferences": {
    "@zk-kit/incremental-merkle-tree.sol/contracts/IncrementalBinaryTree.sol": {
      "IncrementalBinaryTree": [
        {
          "length": 20,
          "start": 4315
        },
        {
          "length": 20,
          "start": 4619
        },
        {
          "length": 20,
          "start": 5154
        }
      ]
    }
  }
}