{
  "_format": "hh-sol-artifact-1",
  "contractName": "Interep",
  "sourceName": "contracts/Interep.sol",
  "abi": [
    {
      "inputs": [
        {
          "internalType": "uint8[]",
          "name": "depths",
          "type": "uint8[]"
        },
        {
          "internalType": "address[]",
          "name": "verifierAddresses",
          "type": "address[]"
        }
      ],
      "stateMutability": "nonpayable",
      "type": "constructor"
    },
    {
      "anonymous": false,
      "inputs": [
        {
          "indexed": false,
          "internalType": "uint256",
          "name": "groupId",
          "type": "uint256"
        },
        {
          "indexed": true,
          "internalType": "bytes32",
          "name": "provider",
          "type": "bytes32"
        },
        {
          "indexed": true,
          "internalType": "bytes32",
          "name": "name",
          "type": "bytes32"
        },
        {
          "indexed": false,
          "internalType": "uint256",
          "name": "root",
          "type": "uint256"
        },
        {
          "indexed": true,
          "internalType": "uint8",
          "name": "depth",
          "type": "uint8"
        }
      ],
      "name": "GroupUpdated",
      "type": "event"
    },
    {
      "anonymous": false,
      "inputs": [
        {
          "indexed": false,
          "internalType": "uint256",
          "name": "nullifierHash",
          "type": "uint256"
        }
      ],
      "name": "NullifierHashAdded",
      "type": "event"
    },
    {
      "anonymous": false,
      "inputs": [
        {
          "indexed": true,
          "internalType": "address",
          "name": "previousOwner",
          "type": "address"
        },
        {
          "indexed": true,
          "internalType": "address",
          "name": "newOwner",
          "type": "address"
        }
      ],
      "name": "OwnershipTransferred",
      "type": "event"
    },
    {
      "anonymous": false,
      "inputs": [
        {
          "indexed": true,
          "internalType": "uint256",
          "name": "groupId",
          "type": "uint256"
        },
        {
          "indexed": false,
          "internalType": "bytes32",
          "name": "signal",
          "type": "bytes32"
        }
      ],
      "name": "ProofVerified",
      "type": "event"
    },
    {
      "inputs": [
        {
          "internalType": "uint256",
          "name": "groupId",
          "type": "uint256"
        }
      ],
      "name": "getDepth",
      "outputs": [
        {
          "internalType": "uint8",
          "name": "",
          "type": "uint8"
        }
      ],
      "stateMutability": "view",
      "type": "function"
    },
    {
      "inputs": [
        {
          "internalType": "uint256",
          "name": "groupId",
          "type": "uint256"
        }
      ],
      "name": "getRoot",
      "outputs": [
        {
          "internalType": "uint256",
          "name": "",
          "type": "uint256"
        }
      ],
      "stateMutability": "view",
      "type": "function"
    },
    {
      "inputs": [
        {
          "internalType": "uint256",
          "name": "",
          "type": "uint256"
        }
      ],
      "name": "groups",
      "outputs": [
        {
          "internalType": "bytes32",
          "name": "provider",
          "type": "bytes32"
        },
        {
          "internalType": "bytes32",
          "name": "name",
          "type": "bytes32"
        },
        {
          "internalType": "uint256",
          "name": "root",
          "type": "uint256"
        },
        {
          "internalType": "uint8",
          "name": "depth",
          "type": "uint8"
        }
      ],
      "stateMutability": "view",
      "type": "function"
    },
    {
      "inputs": [],
      "name": "owner",
      "outputs": [
        {
          "internalType": "address",
          "name": "",
          "type": "address"
        }
      ],
      "stateMutability": "view",
      "type": "function"
    },
    {
      "inputs": [],
      "name": "renounceOwnership",
      "outputs": [],
      "stateMutability": "nonpayable",
      "type": "function"
    },
    {
      "inputs": [
        {
          "internalType": "address",
          "name": "newOwner",
          "type": "address"
        }
      ],
      "name": "transferOwnership",
      "outputs": [],
      "stateMutability": "nonpayable",
      "type": "function"
    },
    {
      "inputs": [
        {
          "components": [
            {
              "internalType": "bytes32",
              "name": "provider",
              "type": "bytes32"
            },
            {
              "internalType": "bytes32",
              "name": "name",
              "type": "bytes32"
            },
            {
              "internalType": "uint256",
              "name": "root",
              "type": "uint256"
            },
            {
              "internalType": "uint8",
              "name": "depth",
              "type": "uint8"
            }
          ],
          "internalType": "struct IInterep.Group[]",
          "name": "offchainGroups",
          "type": "tuple[]"
        }
      ],
      "name": "updateGroups",
      "outputs": [],
      "stateMutability": "nonpayable",
      "type": "function"
    },
    {
      "inputs": [
        {
          "internalType": "uint8",
          "name": "",
          "type": "uint8"
        }
      ],
      "name": "verifiers",
      "outputs": [
        {
          "internalType": "contract IVerifier",
          "name": "",
          "type": "address"
        }
      ],
      "stateMutability": "view",
      "type": "function"
    },
    {
      "inputs": [
        {
          "internalType": "uint256",
          "name": "groupId",
          "type": "uint256"
        },
        {
          "internalType": "bytes32",
          "name": "signal",
          "type": "bytes32"
        },
        {
          "internalType": "uint256",
          "name": "nullifierHash",
          "type": "uint256"
        },
        {
          "internalType": "uint256",
          "name": "externalNullifier",
          "type": "uint256"
        },
        {
          "internalType": "uint256[8]",
          "name": "proof",
          "type": "uint256[8]"
        }
      ],
      "name": "verifyProof",
      "outputs": [],
      "stateMutability": "nonpayable",
      "type": "function"
    }
  ],
  "bytecode": "0x60806040523480156200001157600080fd5b5060405162002071380380620020718339818101604052810190620000379190620003eb565b620000576200004b620001ad60201b60201c565b620001b560201b60201c565b80518251146200009e576040517f08c379a0000000000000000000000000000000000000000000000000000000008152600401620000959062000485565b60405180910390fd5b60005b82518160ff161015620001a457818160ff1681518110620000eb577f4e487b7100000000000000000000000000000000000000000000000000000000600052603260045260246000fd5b602002602001015160026000858460ff168151811062000134577f4e487b7100000000000000000000000000000000000000000000000000000000600052603260045260246000fd5b602002602001015160ff1660ff16815260200190815260200160002060006101000a81548173ffffffffffffffffffffffffffffffffffffffff021916908373ffffffffffffffffffffffffffffffffffffffff16021790555080806200019b90620005b6565b915050620000a1565b505050620006d7565b600033905090565b60008060009054906101000a900473ffffffffffffffffffffffffffffffffffffffff169050816000806101000a81548173ffffffffffffffffffffffffffffffffffffffff021916908373ffffffffffffffffffffffffffffffffffffffff1602179055508173ffffffffffffffffffffffffffffffffffffffff168173ffffffffffffffffffffffffffffffffffffffff167f8be0079c531659141344cd1fd0a4f28419497f9722a3daafe3b4186f6b6457e060405160405180910390a35050565b6000620002906200028a84620004d0565b620004a7565b90508083825260208201905082856020860282011115620002b057600080fd5b60005b85811015620002e45781620002c9888262000363565b845260208401935060208301925050600181019050620002b3565b5050509392505050565b600062000305620002ff84620004ff565b620004a7565b905080838252602082019050828560208602820111156200032557600080fd5b60005b858110156200035957816200033e8882620003d4565b84526020840193506020830192505060018101905062000328565b5050509392505050565b6000815190506200037481620006a3565b92915050565b600082601f8301126200038c57600080fd5b81516200039e84826020860162000279565b91505092915050565b600082601f830112620003b957600080fd5b8151620003cb848260208601620002ee565b91505092915050565b600081519050620003e581620006bd565b92915050565b60008060408385031215620003ff57600080fd5b600083015167ffffffffffffffff8111156200041a57600080fd5b6200042885828601620003a7565b925050602083015167ffffffffffffffff8111156200044657600080fd5b62000454858286016200037a565b9150509250929050565b60006200046d6037836200052e565b91506200047a8262000654565b604082019050919050565b60006020820190508181036000830152620004a0816200045e565b9050919050565b6000620004b3620004c6565b9050620004c1828262000580565b919050565b6000604051905090565b600067ffffffffffffffff821115620004ee57620004ed62000614565b5b602082029050602081019050919050565b600067ffffffffffffffff8211156200051d576200051c62000614565b5b602082029050602081019050919050565b600082825260208201905092915050565b60006200054c8262000553565b9050919050565b600073ffffffffffffffffffffffffffffffffffffffff82169050919050565b600060ff82169050919050565b6200058b8262000643565b810181811067ffffffffffffffff82111715620005ad57620005ac62000614565b5b80604052505050565b6000620005c38262000573565b915060ff821415620005da57620005d9620005e5565b5b600182019050919050565b7f4e487b7100000000000000000000000000000000000000000000000000000000600052601160045260246000fd5b7f4e487b7100000000000000000000000000000000000000000000000000000000600052604160045260246000fd5b6000601f19601f8301169050919050565b7f496e74657265703a20706172616d6574657273206c6973747320646f6573206e60008201527f6f742068617665207468652073616d65206c656e677468000000000000000000602082015250565b620006ae816200053f565b8114620006ba57600080fd5b50565b620006c88162000573565b8114620006d457600080fd5b50565b61198a80620006e76000396000f3fe608060405234801561001057600080fd5b50600436106100935760003560e01c806375e618c91161006657806375e618c91461010a5780638da5cb5b1461013a57806396324bd4146101585780639b24b3b01461018b578063f2fde38b146101bb57610093565b80632d69be981461009857806358bdf0f4146100c85780636673e849146100e4578063715018a614610100575b600080fd5b6100b260048036038101906100ad9190610ea2565b6101d7565b6040516100bf9190611280565b60405180910390f35b6100e260048036038101906100dd9190610dbc565b61020a565b005b6100fe60048036038101906100f99190610e2a565b6103e0565b005b6101086104d8565b005b610124600480360381019061011f9190610e01565b610560565b604051610131919061137f565b60405180910390f35b61014261058d565b60405161014f91906111be565b60405180910390f35b610172600480360381019061016d9190610e01565b6105b6565b604051610182949392919061123b565b60405180910390f35b6101a560048036038101906101a09190610e01565b6105f3565b6040516101b2919061133b565b60405180910390f35b6101d560048036038101906101d09190610d93565b610613565b005b60026020528060005260406000206000915054906101000a900473ffffffffffffffffffffffffffffffffffffffff1681565b61021261070b565b73ffffffffffffffffffffffffffffffffffffffff1661023061058d565b73ffffffffffffffffffffffffffffffffffffffff1614610286576040517f08c379a000000000000000000000000000000000000000000000000000000000815260040161027d906112fb565b60405180910390fd5b60005b828290508160ff1610156103db5760007f30644e72e131a029b85045b68181585d2833e84879b9709143e1f593f000000184848460ff168181106102f6577f4e487b7100000000000000000000000000000000000000000000000000000000600052603260045260246000fd5b9050608002016000013585858560ff1681811061033c577f4e487b7100000000000000000000000000000000000000000000000000000000600052603260045260246000fd5b90506080020160200135604051602001610357929190611192565b6040516020818303038152906040528051906020012060001c61037a91906115a6565b90506103c78185858560ff168181106103bc577f4e487b7100000000000000000000000000000000000000000000000000000000600052603260045260246000fd5b905060800201610713565b5080806103d390611572565b915050610289565b505050565b60006103eb866105f3565b905060006103f887610560565b905060008160ff161415610441576040517f08c379a0000000000000000000000000000000000000000000000000000000008152600401610438906112db565b60405180910390fd5b6000600260008360ff1660ff16815260200190815260200160002060009054906101000a900473ffffffffffffffffffffffffffffffffffffffff16905061048d878488888886610854565b61049686610bae565b877f102229041138505f4cecdadc8e3ac1cd92c55870c17371050fc00bdb08889801886040516104c69190611220565b60405180910390a25050505050505050565b6104e061070b565b73ffffffffffffffffffffffffffffffffffffffff166104fe61058d565b73ffffffffffffffffffffffffffffffffffffffff1614610554576040517f08c379a000000000000000000000000000000000000000000000000000000000815260040161054b906112fb565b60405180910390fd5b61055e6000610bdc565b565b60006003600083815260200190815260200160002060030160009054906101000a900460ff169050919050565b60008060009054906101000a900473ffffffffffffffffffffffffffffffffffffffff16905090565b60036020528060005260406000206000915090508060000154908060010154908060020154908060030160009054906101000a900460ff16905084565b600060036000838152602001908152602001600020600201549050919050565b61061b61070b565b73ffffffffffffffffffffffffffffffffffffffff1661063961058d565b73ffffffffffffffffffffffffffffffffffffffff161461068f576040517f08c379a0000000000000000000000000000000000000000000000000000000008152600401610686906112fb565b60405180910390fd5b600073ffffffffffffffffffffffffffffffffffffffff168173ffffffffffffffffffffffffffffffffffffffff1614156106ff576040517f08c379a00000000000000000000000000000000000000000000000000000000081526004016106f6906112bb565b60405180910390fd5b61070881610bdc565b50565b600033905090565b8060600160208101906107269190610ea2565b600073ffffffffffffffffffffffffffffffffffffffff16600260008360ff1660ff16815260200190815260200160002060009054906101000a900473ffffffffffffffffffffffffffffffffffffffff1673ffffffffffffffffffffffffffffffffffffffff1614156107cf576040517f08c379a00000000000000000000000000000000000000000000000000000000081526004016107c69061131b565b60405180910390fd5b816003600085815260200190815260200160002081816107ef91906118a4565b9050508160600160208101906108059190610ea2565b60ff16826020013583600001357f3c0faca11540ab6635a2fc029595f2f4ffdd340883eea6c374bf74a68eef5c7d868660400135604051610847929190611356565b60405180910390a4505050565b6001600085815260200190815260200160002060009054906101000a900460ff16156108b5576040517f08c379a00000000000000000000000000000000000000000000000000000000081526004016108ac9061129b565b60405180910390fd5b60006108c087610ca0565b90508173ffffffffffffffffffffffffffffffffffffffff16635fe8c13b604051806040016040528086600060088110610923577f4e487b7100000000000000000000000000000000000000000000000000000000600052603260045260246000fd5b6020020135815260200186600160088110610967577f4e487b7100000000000000000000000000000000000000000000000000000000600052603260045260246000fd5b602002013581525060405180604001604052806040518060400160405280896002600881106109bf577f4e487b7100000000000000000000000000000000000000000000000000000000600052603260045260246000fd5b6020020135815260200189600360088110610a03577f4e487b7100000000000000000000000000000000000000000000000000000000600052603260045260246000fd5b60200201358152508152602001604051806040016040528089600460088110610a55577f4e487b7100000000000000000000000000000000000000000000000000000000600052603260045260246000fd5b6020020135815260200189600560088110610a99577f4e487b7100000000000000000000000000000000000000000000000000000000600052603260045260246000fd5b6020020135815250815250604051806040016040528088600660088110610ae9577f4e487b7100000000000000000000000000000000000000000000000000000000600052603260045260246000fd5b6020020135815260200188600760088110610b2d577f4e487b7100000000000000000000000000000000000000000000000000000000600052603260045260246000fd5b602002013581525060405180608001604052808c81526020018b81526020018781526020018a8152506040518563ffffffff1660e01b8152600401610b7594939291906111d9565b60006040518083038186803b158015610b8d57600080fd5b505afa158015610ba1573d6000803e3d6000fd5b5050505050505050505050565b600180600083815260200190815260200160002060006101000a81548160ff02191690831515021790555050565b60008060009054906101000a900473ffffffffffffffffffffffffffffffffffffffff169050816000806101000a81548173ffffffffffffffffffffffffffffffffffffffff021916908373ffffffffffffffffffffffffffffffffffffffff1602179055508173ffffffffffffffffffffffffffffffffffffffff168173ffffffffffffffffffffffffffffffffffffffff167f8be0079c531659141344cd1fd0a4f28419497f9722a3daafe3b4186f6b6457e060405160405180910390a35050565b6000600882604051602001610cb59190611177565b6040516020818303038152906040528051906020012060001c901c9050919050565b600081359050610ce6816118f8565b92915050565b60008083601f840112610cfe57600080fd5b8235905067ffffffffffffffff811115610d1757600080fd5b602083019150836080820283011115610d2f57600080fd5b9250929050565b600081905082602060080282011115610d4e57600080fd5b92915050565b600081359050610d638161190f565b92915050565b600081359050610d7881611926565b92915050565b600081359050610d8d8161193d565b92915050565b600060208284031215610da557600080fd5b6000610db384828501610cd7565b91505092915050565b60008060208385031215610dcf57600080fd5b600083013567ffffffffffffffff811115610de957600080fd5b610df585828601610cec565b92509250509250929050565b600060208284031215610e1357600080fd5b6000610e2184828501610d69565b91505092915050565b60008060008060006101808688031215610e4357600080fd5b6000610e5188828901610d69565b9550506020610e6288828901610d54565b9450506040610e7388828901610d69565b9350506060610e8488828901610d69565b9250506080610e9588828901610d36565b9150509295509295909350565b600060208284031215610eb457600080fd5b6000610ec284828501610d7e565b91505092915050565b6000610ed78383610f61565b60408301905092915050565b6000610eef838361114a565b60208301905092915050565b610f048161143d565b82525050565b610f13816113b8565b610f1d8184611400565b9250610f288261139a565b8060005b83811015610f59578151610f408782610ecb565b9650610f4b836113d9565b925050600181019050610f2c565b505050505050565b610f6a816113c3565b610f74818461140b565b9250610f7f826113a4565b8060005b83811015610fb0578151610f978782610ee3565b9650610fa2836113e6565b925050600181019050610f83565b505050505050565b610fc1816113c3565b610fcb8184611416565b9250610fd6826113a4565b8060005b83811015611007578151610fee8782610ee3565b9650610ff9836113e6565b925050600181019050610fda565b505050505050565b611018816113ce565b6110228184611421565b925061102d826113ae565b8060005b8381101561105e5781516110458782610ee3565b9650611050836113f3565b925050600181019050611031565b505050505050565b61106f8161144f565b82525050565b6110866110818261144f565b61159c565b82525050565b611095816114a2565b82525050565b60006110a860368361142c565b91506110b3826116b7565b604082019050919050565b60006110cb60268361142c565b91506110d682611706565b604082019050919050565b60006110ee60218361142c565b91506110f982611755565b604082019050919050565b600061111160208361142c565b915061111c826117a4565b602082019050919050565b600061113460248361142c565b915061113f826117cd565b604082019050919050565b61115381611479565b82525050565b61116281611479565b82525050565b61117181611483565b82525050565b60006111838284611075565b60208201915081905092915050565b600061119e8285611075565b6020820191506111ae8284611075565b6020820191508190509392505050565b60006020820190506111d36000830184610efb565b92915050565b6000610180820190506111ef6000830187610fb8565b6111fc6040830186610f0a565b61120960c0830185610fb8565b61121761010083018461100f565b95945050505050565b60006020820190506112356000830184611066565b92915050565b60006080820190506112506000830187611066565b61125d6020830186611066565b61126a6040830185611159565b6112776060830184611168565b95945050505050565b6000602082019050611295600083018461108c565b92915050565b600060208201905081810360008301526112b48161109b565b9050919050565b600060208201905081810360008301526112d4816110be565b9050919050565b600060208201905081810360008301526112f4816110e1565b9050919050565b6000602082019050818103600083015261131481611104565b9050919050565b6000602082019050818103600083015261133481611127565b9050919050565b60006020820190506113506000830184611159565b92915050565b600060408201905061136b6000830185611159565b6113786020830184611159565b9392505050565b60006020820190506113946000830184611168565b92915050565b6000819050919050565b6000819050919050565b6000819050919050565b600060029050919050565b600060029050919050565b600060049050919050565b6000602082019050919050565b6000602082019050919050565b6000602082019050919050565b600081905092915050565b600081905092915050565b600081905092915050565b600081905092915050565b600082825260208201905092915050565b600061144882611459565b9050919050565b6000819050919050565b600073ffffffffffffffffffffffffffffffffffffffff82169050919050565b6000819050919050565b600060ff82169050919050565b600061149b8261144f565b9050919050565b60006114ad826114b4565b9050919050565b60006114bf82611459565b9050919050565b60006114d182611479565b9050919050565b60006114e382611483565b9050919050565b6000810160008301806114fc8161165b565b90506115088184611881565b50505060018101602083018061151d8161165b565b90506115298184611881565b50505060028101604083018061153e81611671565b905061154a81846118b2565b50505060038101606083018061155f81611687565b905061156b81846118d5565b5050505050565b600061157d82611483565b915060ff821415611591576115906115d7565b5b600182019050919050565b6000819050919050565b60006115b182611479565b91506115bc83611479565b9250826115cc576115cb611606565b5b828206905092915050565b7f4e487b7100000000000000000000000000000000000000000000000000000000600052601160045260246000fd5b7f4e487b7100000000000000000000000000000000000000000000000000000000600052601260045260246000fd5b6000611640826116aa565b9050919050565b6000819050919050565b6000819050919050565b600081356116688161190f565b80915050919050565b6000813561167e81611926565b80915050919050565b600081356116948161193d565b80915050919050565b60008160001b9050919050565b60008160001c9050919050565b7f53656d6170686f7265436f72653a20796f752063616e6e6f742075736520746860008201527f652073616d65206e756c6c696669657220747769636500000000000000000000602082015250565b7f4f776e61626c653a206e6577206f776e657220697320746865207a65726f206160008201527f6464726573730000000000000000000000000000000000000000000000000000602082015250565b7f496e74657265703a207468652067726f757020646f6573206e6f74206578697360008201527f7400000000000000000000000000000000000000000000000000000000000000602082015250565b7f4f776e61626c653a2063616c6c6572206973206e6f7420746865206f776e6572600082015250565b7f496e74657265703a2074726565206465707468206973206e6f7420737570706f60008201527f7274656400000000000000000000000000000000000000000000000000000000602082015250565b600060ff6118298461169d565b9350801983169250808416831791505092915050565b60007fffffffffffffffffffffffffffffffffffffffffffffffffffffffffffffffff61186b8461169d565b9350801983169250808416831791505092915050565b61188a82611490565b61189d61189682611635565b835461183f565b8255505050565b6118ae82826114ea565b5050565b6118bb826114c6565b6118ce6118c782611647565b835461183f565b8255505050565b6118de826114d8565b6118f16118ea82611651565b835461181c565b8255505050565b6119018161143d565b811461190c57600080fd5b50565b6119188161144f565b811461192357600080fd5b50565b61192f81611479565b811461193a57600080fd5b50565b61194681611483565b811461195157600080fd5b5056fea2646970667358221220b9e3143fa92a9405aca4a80a7511f9100d3116163820af276e6dafff035e0e3164736f6c63430008040033",
  "linkReferences": {},
  "deployedLinkReferences": {}
}