{
  "_format": "hh-sol-artifact-1",
  "contractName": "Interep",
  "sourceName": "contracts/Interep.sol",
  "abi": [
    {
      "inputs": [
        {
          "components": [
            {
              "internalType": "address",
              "name": "contractAddress",
              "type": "address"
            },
            {
              "internalType": "uint8",
              "name": "merkleTreeDepth",
              "type": "uint8"
            }
          ],
          "internalType": "struct IInterep.Verifier[]",
          "name": "_verifiers",
          "type": "tuple[]"
        }
      ],
      "stateMutability": "nonpayable",
      "type": "constructor"
    },
    {
      "anonymous": false,
      "inputs": [
        {
          "indexed": false,
          "internalType": "uint256",
          "name": "root",
          "type": "uint256"
        },
        {
          "indexed": false,
          "internalType": "uint8",
          "name": "depth",
          "type": "uint8"
        }
      ],
      "name": "MerkleTreeAdded",
      "type": "event"
    },
    {
      "anonymous": false,
      "inputs": [
        {
          "indexed": false,
          "internalType": "uint256",
          "name": "nullifierHash",
          "type": "uint256"
        }
      ],
      "name": "NullifierHashAdded",
      "type": "event"
    },
    {
      "anonymous": false,
      "inputs": [
        {
          "indexed": true,
          "internalType": "address",
          "name": "previousOwner",
          "type": "address"
        },
        {
          "indexed": true,
          "internalType": "address",
          "name": "newOwner",
          "type": "address"
        }
      ],
      "name": "OwnershipTransferred",
      "type": "event"
    },
    {
      "anonymous": false,
      "inputs": [
        {
          "indexed": true,
          "internalType": "uint256",
          "name": "merkleTreeRoot",
          "type": "uint256"
        },
        {
          "indexed": false,
          "internalType": "bytes32",
          "name": "signal",
          "type": "bytes32"
        }
      ],
      "name": "ProofVerified",
      "type": "event"
    },
    {
      "inputs": [
        {
          "components": [
            {
              "internalType": "uint256",
              "name": "root",
              "type": "uint256"
            },
            {
              "internalType": "uint8",
              "name": "depth",
              "type": "uint8"
            }
          ],
          "internalType": "struct IInterep.MerkleTree[]",
          "name": "_merkleTrees",
          "type": "tuple[]"
        }
      ],
      "name": "addMerkleTrees",
      "outputs": [],
      "stateMutability": "nonpayable",
      "type": "function"
    },
    {
      "inputs": [
        {
          "internalType": "uint256",
          "name": "",
          "type": "uint256"
        }
      ],
      "name": "merkleTrees",
      "outputs": [
        {
          "internalType": "uint8",
          "name": "",
          "type": "uint8"
        }
      ],
      "stateMutability": "view",
      "type": "function"
    },
    {
      "inputs": [],
      "name": "owner",
      "outputs": [
        {
          "internalType": "address",
          "name": "",
          "type": "address"
        }
      ],
      "stateMutability": "view",
      "type": "function"
    },
    {
      "inputs": [],
      "name": "renounceOwnership",
      "outputs": [],
      "stateMutability": "nonpayable",
      "type": "function"
    },
    {
      "inputs": [
        {
          "internalType": "address",
          "name": "newOwner",
          "type": "address"
        }
      ],
      "name": "transferOwnership",
      "outputs": [],
      "stateMutability": "nonpayable",
      "type": "function"
    },
    {
      "inputs": [
        {
          "internalType": "uint8",
          "name": "",
          "type": "uint8"
        }
      ],
      "name": "verifiers",
      "outputs": [
        {
          "internalType": "contract IVerifier",
          "name": "",
          "type": "address"
        }
      ],
      "stateMutability": "view",
      "type": "function"
    },
    {
      "inputs": [
        {
          "internalType": "uint256",
          "name": "merkleTreeRoot",
          "type": "uint256"
        },
        {
          "internalType": "bytes32",
          "name": "signal",
          "type": "bytes32"
        },
        {
          "internalType": "uint256",
          "name": "nullifierHash",
          "type": "uint256"
        },
        {
          "internalType": "uint256",
          "name": "externalNullifier",
          "type": "uint256"
        },
        {
          "internalType": "uint256[8]",
          "name": "proof",
          "type": "uint256[8]"
        }
      ],
      "name": "verifyProof",
      "outputs": [],
      "stateMutability": "nonpayable",
      "type": "function"
    }
  ],
  "bytecode": "0x60806040523480156200001157600080fd5b5060405162001c0b38038062001c0b83398181016040528101906200003791906200035c565b620000576200004b6200016d60201b60201c565b6200017560201b60201c565b60005b81518160ff1610156200016557818160ff1681518110620000a4577f4e487b7100000000000000000000000000000000000000000000000000000000600052603260045260246000fd5b60200260200101516000015160026000848460ff1681518110620000f1577f4e487b7100000000000000000000000000000000000000000000000000000000600052603260045260246000fd5b60200260200101516020015160ff1660ff16815260200190815260200160002060006101000a81548173ffffffffffffffffffffffffffffffffffffffff021916908373ffffffffffffffffffffffffffffffffffffffff16021790555080806200015c9062000470565b9150506200005a565b505062000542565b600033905090565b60008060009054906101000a900473ffffffffffffffffffffffffffffffffffffffff169050816000806101000a81548173ffffffffffffffffffffffffffffffffffffffff021916908373ffffffffffffffffffffffffffffffffffffffff1602179055508173ffffffffffffffffffffffffffffffffffffffff168173ffffffffffffffffffffffffffffffffffffffff167f8be0079c531659141344cd1fd0a4f28419497f9722a3daafe3b4186f6b6457e060405160405180910390a35050565b6000620002506200024a84620003ca565b620003a1565b905080838252602082019050828560408602820111156200027057600080fd5b60005b85811015620002a45781620002898882620002f2565b84526020840193506040830192505060018101905062000273565b5050509392505050565b600081519050620002bf816200050e565b92915050565b600082601f830112620002d757600080fd5b8151620002e984826020860162000239565b91505092915050565b6000604082840312156200030557600080fd5b620003116040620003a1565b905060006200032384828501620002ae565b6000830152506020620003398482850162000345565b60208301525092915050565b600081519050620003568162000528565b92915050565b6000602082840312156200036f57600080fd5b600082015167ffffffffffffffff8111156200038a57600080fd5b6200039884828501620002c5565b91505092915050565b6000620003ad620003c0565b9050620003bb82826200043a565b919050565b6000604051905090565b600067ffffffffffffffff821115620003e857620003e7620004ce565b5b602082029050602081019050919050565b600062000406826200040d565b9050919050565b600073ffffffffffffffffffffffffffffffffffffffff82169050919050565b600060ff82169050919050565b6200044582620004fd565b810181811067ffffffffffffffff82111715620004675762000466620004ce565b5b80604052505050565b60006200047d826200042d565b915060ff8214156200049457620004936200049f565b5b600182019050919050565b7f4e487b7100000000000000000000000000000000000000000000000000000000600052601160045260246000fd5b7f4e487b7100000000000000000000000000000000000000000000000000000000600052604160045260246000fd5b6000601f19601f8301169050919050565b6200051981620003f9565b81146200052557600080fd5b50565b62000533816200042d565b81146200053f57600080fd5b50565b6116b980620005526000396000f3fe608060405234801561001057600080fd5b506004361061007d5760003560e01c806385d88cb11161005b57806385d88cb1146100d85780638da5cb5b14610108578063d705e88c14610126578063f2fde38b146101425761007d565b80632d69be98146100825780636673e849146100b2578063715018a6146100ce575b600080fd5b61009c60048036038101906100979190610e93565b61015e565b6040516100a99190611223565b60405180910390f35b6100cc60048036038101906100c79190610e1b565b610191565b005b6100d6610293565b005b6100f260048036038101906100ed9190610df2565b61031b565b6040516100ff9190611327565b60405180910390f35b61011061033b565b60405161011d91906111a6565b60405180910390f35b610140600480360381019061013b9190610dad565b610364565b005b61015c60048036038101906101579190610d84565b610745565b005b60026020528060005260406000206000915054906101000a900473ffffffffffffffffffffffffffffffffffffffff1681565b60006003600087815260200190815260200160002060009054906101000a900460ff16905060008160ff1614156101fd576040517f08c379a00000000000000000000000000000000000000000000000000000000081526004016101f49061129e565b60405180910390fd5b6000600260008360ff1660ff16815260200190815260200160002060009054906101000a900473ffffffffffffffffffffffffffffffffffffffff16905061024986888787878661083d565b61025285610b97565b867f102229041138505f4cecdadc8e3ac1cd92c55870c17371050fc00bdb08889801876040516102829190611208565b60405180910390a250505050505050565b61029b610bc5565b73ffffffffffffffffffffffffffffffffffffffff166102b961033b565b73ffffffffffffffffffffffffffffffffffffffff161461030f576040517f08c379a0000000000000000000000000000000000000000000000000000000008152600401610306906112be565b60405180910390fd5b6103196000610bcd565b565b60036020528060005260406000206000915054906101000a900460ff1681565b60008060009054906101000a900473ffffffffffffffffffffffffffffffffffffffff16905090565b61036c610bc5565b73ffffffffffffffffffffffffffffffffffffffff1661038a61033b565b73ffffffffffffffffffffffffffffffffffffffff16146103e0576040517f08c379a00000000000000000000000000000000000000000000000000000000081526004016103d7906112be565b60405180910390fd5b60005b828290508160ff16101561074057600073ffffffffffffffffffffffffffffffffffffffff166002600085858560ff16818110610449577f4e487b7100000000000000000000000000000000000000000000000000000000600052603260045260246000fd5b90506040020160200160208101906104619190610e93565b60ff1660ff16815260200190815260200160002060009054906101000a900473ffffffffffffffffffffffffffffffffffffffff1673ffffffffffffffffffffffffffffffffffffffff1614156104ed576040517f08c379a00000000000000000000000000000000000000000000000000000000081526004016104e4906112de565b60405180910390fd5b60006003600085858560ff1681811061052f577f4e487b7100000000000000000000000000000000000000000000000000000000600052603260045260246000fd5b90506040020160000135815260200190815260200160002060009054906101000a900460ff1660ff1614610598576040517f08c379a000000000000000000000000000000000000000000000000000000000815260040161058f9061123e565b60405180910390fd5b82828260ff168181106105d4577f4e487b7100000000000000000000000000000000000000000000000000000000600052603260045260246000fd5b90506040020160200160208101906105ec9190610e93565b6003600085858560ff1681811061062c577f4e487b7100000000000000000000000000000000000000000000000000000000600052603260045260246000fd5b90506040020160000135815260200190815260200160002060006101000a81548160ff021916908360ff1602179055507f3e6fe8809b7f3fbf314026b37f7cdd1edbdfd369c0e045b492215a3f09c6e2f083838360ff168181106106b9577f4e487b7100000000000000000000000000000000000000000000000000000000600052603260045260246000fd5b9050604002016000013584848460ff168181106106ff577f4e487b7100000000000000000000000000000000000000000000000000000000600052603260045260246000fd5b90506040020160200160208101906107179190610e93565b6040516107259291906112fe565b60405180910390a180806107389061145c565b9150506103e3565b505050565b61074d610bc5565b73ffffffffffffffffffffffffffffffffffffffff1661076b61033b565b73ffffffffffffffffffffffffffffffffffffffff16146107c1576040517f08c379a00000000000000000000000000000000000000000000000000000000081526004016107b8906112be565b60405180910390fd5b600073ffffffffffffffffffffffffffffffffffffffff168173ffffffffffffffffffffffffffffffffffffffff161415610831576040517f08c379a00000000000000000000000000000000000000000000000000000000081526004016108289061127e565b60405180910390fd5b61083a81610bcd565b50565b6001600085815260200190815260200160002060009054906101000a900460ff161561089e576040517f08c379a00000000000000000000000000000000000000000000000000000000081526004016108959061125e565b60405180910390fd5b60006108a987610c91565b90508173ffffffffffffffffffffffffffffffffffffffff16635fe8c13b60405180604001604052808660006008811061090c577f4e487b7100000000000000000000000000000000000000000000000000000000600052603260045260246000fd5b6020020135815260200186600160088110610950577f4e487b7100000000000000000000000000000000000000000000000000000000600052603260045260246000fd5b602002013581525060405180604001604052806040518060400160405280896002600881106109a8577f4e487b7100000000000000000000000000000000000000000000000000000000600052603260045260246000fd5b60200201358152602001896003600881106109ec577f4e487b7100000000000000000000000000000000000000000000000000000000600052603260045260246000fd5b60200201358152508152602001604051806040016040528089600460088110610a3e577f4e487b7100000000000000000000000000000000000000000000000000000000600052603260045260246000fd5b6020020135815260200189600560088110610a82577f4e487b7100000000000000000000000000000000000000000000000000000000600052603260045260246000fd5b6020020135815250815250604051806040016040528088600660088110610ad2577f4e487b7100000000000000000000000000000000000000000000000000000000600052603260045260246000fd5b6020020135815260200188600760088110610b16577f4e487b7100000000000000000000000000000000000000000000000000000000600052603260045260246000fd5b602002013581525060405180608001604052808c81526020018b81526020018781526020018a8152506040518563ffffffff1660e01b8152600401610b5e94939291906111c1565b60006040518083038186803b158015610b7657600080fd5b505afa158015610b8a573d6000803e3d6000fd5b5050505050505050505050565b600180600083815260200190815260200160002060006101000a81548160ff02191690831515021790555050565b600033905090565b60008060009054906101000a900473ffffffffffffffffffffffffffffffffffffffff169050816000806101000a81548173ffffffffffffffffffffffffffffffffffffffff021916908373ffffffffffffffffffffffffffffffffffffffff1602179055508173ffffffffffffffffffffffffffffffffffffffff168173ffffffffffffffffffffffffffffffffffffffff167f8be0079c531659141344cd1fd0a4f28419497f9722a3daafe3b4186f6b6457e060405160405180910390a35050565b6000600882604051602001610ca6919061118b565b6040516020818303038152906040528051906020012060001c901c9050919050565b600081359050610cd781611627565b92915050565b60008083601f840112610cef57600080fd5b8235905067ffffffffffffffff811115610d0857600080fd5b602083019150836040820283011115610d2057600080fd5b9250929050565b600081905082602060080282011115610d3f57600080fd5b92915050565b600081359050610d548161163e565b92915050565b600081359050610d6981611655565b92915050565b600081359050610d7e8161166c565b92915050565b600060208284031215610d9657600080fd5b6000610da484828501610cc8565b91505092915050565b60008060208385031215610dc057600080fd5b600083013567ffffffffffffffff811115610dda57600080fd5b610de685828601610cdd565b92509250509250929050565b600060208284031215610e0457600080fd5b6000610e1284828501610d5a565b91505092915050565b60008060008060006101808688031215610e3457600080fd5b6000610e4288828901610d5a565b9550506020610e5388828901610d45565b9450506040610e6488828901610d5a565b9350506060610e7588828901610d5a565b9250506080610e8688828901610d27565b9150509295509295909350565b600060208284031215610ea557600080fd5b6000610eb384828501610d6f565b91505092915050565b6000610ec88383610f52565b60408301905092915050565b6000610ee0838361115e565b60208301905092915050565b610ef5816113e5565b82525050565b610f0481611360565b610f0e81846113a8565b9250610f1982611342565b8060005b83811015610f4a578151610f318782610ebc565b9650610f3c83611381565b925050600181019050610f1d565b505050505050565b610f5b8161136b565b610f6581846113b3565b9250610f708261134c565b8060005b83811015610fa1578151610f888782610ed4565b9650610f938361138e565b925050600181019050610f74565b505050505050565b610fb28161136b565b610fbc81846113be565b9250610fc78261134c565b8060005b83811015610ff8578151610fdf8782610ed4565b9650610fea8361138e565b925050600181019050610fcb565b505050505050565b61100981611376565b61101381846113c9565b925061101e82611356565b8060005b8381101561104f5781516110368782610ed4565b96506110418361139b565b925050600181019050611022565b505050505050565b611060816113f7565b82525050565b611077611072826113f7565b611486565b82525050565b61108681611438565b82525050565b6000611099601c836113d4565b91506110a4826114bf565b602082019050919050565b60006110bc6036836113d4565b91506110c7826114e8565b604082019050919050565b60006110df6026836113d4565b91506110ea82611537565b604082019050919050565b6000611102601c836113d4565b915061110d82611586565b602082019050919050565b60006111256020836113d4565b9150611130826115af565b602082019050919050565b60006111486024836113d4565b9150611153826115d8565b604082019050919050565b61116781611421565b82525050565b61117681611421565b82525050565b6111858161142b565b82525050565b60006111978284611066565b60208201915081905092915050565b60006020820190506111bb6000830184610eec565b92915050565b6000610180820190506111d76000830187610fa9565b6111e46040830186610efb565b6111f160c0830185610fa9565b6111ff610100830184611000565b95945050505050565b600060208201905061121d6000830184611057565b92915050565b6000602082019050611238600083018461107d565b92915050565b600060208201905081810360008301526112578161108c565b9050919050565b60006020820190508181036000830152611277816110af565b9050919050565b60006020820190508181036000830152611297816110d2565b9050919050565b600060208201905081810360008301526112b7816110f5565b9050919050565b600060208201905081810360008301526112d781611118565b9050919050565b600060208201905081810360008301526112f78161113b565b9050919050565b6000604082019050611313600083018561116d565b611320602083018461117c565b9392505050565b600060208201905061133c600083018461117c565b92915050565b6000819050919050565b6000819050919050565b6000819050919050565b600060029050919050565b600060029050919050565b600060049050919050565b6000602082019050919050565b6000602082019050919050565b6000602082019050919050565b600081905092915050565b600081905092915050565b600081905092915050565b600081905092915050565b600082825260208201905092915050565b60006113f082611401565b9050919050565b6000819050919050565b600073ffffffffffffffffffffffffffffffffffffffff82169050919050565b6000819050919050565b600060ff82169050919050565b60006114438261144a565b9050919050565b600061145582611401565b9050919050565b60006114678261142b565b915060ff82141561147b5761147a611490565b5b600182019050919050565b6000819050919050565b7f4e487b7100000000000000000000000000000000000000000000000000000000600052601160045260246000fd5b7f496e74657265703a207472656520616c72656164792065786973747300000000600082015250565b7f53656d6170686f7265436f72653a20796f752063616e6e6f742075736520746860008201527f652073616d65206e756c6c696669657220747769636500000000000000000000602082015250565b7f4f776e61626c653a206e6577206f776e657220697320746865207a65726f206160008201527f6464726573730000000000000000000000000000000000000000000000000000602082015250565b7f496e74657265703a207472656520646f6573206e6f7420657869737400000000600082015250565b7f4f776e61626c653a2063616c6c6572206973206e6f7420746865206f776e6572600082015250565b7f496e74657265703a2074726565206465707468206973206e6f7420737570706f60008201527f7274656400000000000000000000000000000000000000000000000000000000602082015250565b611630816113e5565b811461163b57600080fd5b50565b611647816113f7565b811461165257600080fd5b50565b61165e81611421565b811461166957600080fd5b50565b6116758161142b565b811461168057600080fd5b5056fea2646970667358221220d36443cc2d9e8898e019012b76103500cf7cbe0b6f341a40c930de591e0afcc564736f6c63430008040033",
  "linkReferences": {},
  "deployedLinkReferences": {}
}